{
  "_format": "hh-sol-artifact-1",
  "contractName": "NFTMarketplace",
  "sourceName": "contracts/NFTMarketplace.sol",
  "abi": [
    {
      "inputs": [],
      "stateMutability": "nonpayable",
      "type": "constructor"
    },
    {
      "anonymous": false,
      "inputs": [
        {
          "indexed": true,
          "internalType": "address",
          "name": "owner",
          "type": "address"
        },
        {
          "indexed": true,
          "internalType": "address",
          "name": "approved",
          "type": "address"
        },
        {
          "indexed": true,
          "internalType": "uint256",
          "name": "tokenId",
          "type": "uint256"
        }
      ],
      "name": "Approval",
      "type": "event"
    },
    {
      "anonymous": false,
      "inputs": [
        {
          "indexed": true,
          "internalType": "address",
          "name": "owner",
          "type": "address"
        },
        {
          "indexed": true,
          "internalType": "address",
          "name": "operator",
          "type": "address"
        },
        {
          "indexed": false,
          "internalType": "bool",
          "name": "approved",
          "type": "bool"
        }
      ],
      "name": "ApprovalForAll",
      "type": "event"
    },
    {
      "anonymous": false,
      "inputs": [
        {
          "indexed": true,
          "internalType": "uint256",
          "name": "tokenId",
          "type": "uint256"
        },
        {
          "indexed": false,
          "internalType": "address",
          "name": "seller",
          "type": "address"
        },
        {
          "indexed": false,
          "internalType": "address",
          "name": "owner",
          "type": "address"
        },
        {
          "indexed": false,
          "internalType": "uint256",
          "name": "price",
          "type": "uint256"
        },
        {
          "indexed": false,
          "internalType": "bool",
          "name": "sold",
          "type": "bool"
        }
      ],
      "name": "MarketItemCreated",
      "type": "event"
    },
    {
      "anonymous": false,
      "inputs": [
        {
          "indexed": true,
          "internalType": "address",
          "name": "from",
          "type": "address"
        },
        {
          "indexed": true,
          "internalType": "address",
          "name": "to",
          "type": "address"
        },
        {
          "indexed": true,
          "internalType": "uint256",
          "name": "tokenId",
          "type": "uint256"
        }
      ],
      "name": "Transfer",
      "type": "event"
    },
    {
      "inputs": [
        {
          "internalType": "address",
          "name": "to",
          "type": "address"
        },
        {
          "internalType": "uint256",
          "name": "tokenId",
          "type": "uint256"
        }
      ],
      "name": "approve",
      "outputs": [],
      "stateMutability": "nonpayable",
      "type": "function"
    },
    {
      "inputs": [
        {
          "internalType": "address",
          "name": "owner",
          "type": "address"
        }
      ],
      "name": "balanceOf",
      "outputs": [
        {
          "internalType": "uint256",
          "name": "",
          "type": "uint256"
        }
      ],
      "stateMutability": "view",
      "type": "function"
    },
    {
      "inputs": [
        {
          "internalType": "uint256",
          "name": "tokenId",
          "type": "uint256"
        }
      ],
      "name": "createMarketSale",
      "outputs": [],
      "stateMutability": "payable",
      "type": "function"
    },
    {
      "inputs": [
        {
          "internalType": "string",
          "name": "tokenURI",
          "type": "string"
        },
        {
          "internalType": "uint256",
          "name": "price",
          "type": "uint256"
        }
      ],
      "name": "createToken",
      "outputs": [
        {
          "internalType": "uint256",
          "name": "",
          "type": "uint256"
        }
      ],
      "stateMutability": "payable",
      "type": "function"
    },
    {
      "inputs": [],
      "name": "fetchItemsListed",
      "outputs": [
        {
          "components": [
            {
              "internalType": "uint256",
              "name": "tokenId",
              "type": "uint256"
            },
            {
              "internalType": "address payable",
              "name": "seller",
              "type": "address"
            },
            {
              "internalType": "address payable",
              "name": "owner",
              "type": "address"
            },
            {
              "internalType": "uint256",
              "name": "price",
              "type": "uint256"
            },
            {
              "internalType": "bool",
              "name": "sold",
              "type": "bool"
            }
          ],
          "internalType": "struct NFTMarketplace.MarketItem[]",
          "name": "",
          "type": "tuple[]"
        }
      ],
      "stateMutability": "view",
      "type": "function"
    },
    {
      "inputs": [],
      "name": "fetchMarketItems",
      "outputs": [
        {
          "components": [
            {
              "internalType": "uint256",
              "name": "tokenId",
              "type": "uint256"
            },
            {
              "internalType": "address payable",
              "name": "seller",
              "type": "address"
            },
            {
              "internalType": "address payable",
              "name": "owner",
              "type": "address"
            },
            {
              "internalType": "uint256",
              "name": "price",
              "type": "uint256"
            },
            {
              "internalType": "bool",
              "name": "sold",
              "type": "bool"
            }
          ],
          "internalType": "struct NFTMarketplace.MarketItem[]",
          "name": "",
          "type": "tuple[]"
        }
      ],
      "stateMutability": "view",
      "type": "function"
    },
    {
      "inputs": [],
      "name": "fetchMyNfts",
      "outputs": [
        {
          "components": [
            {
              "internalType": "uint256",
              "name": "tokenId",
              "type": "uint256"
            },
            {
              "internalType": "address payable",
              "name": "seller",
              "type": "address"
            },
            {
              "internalType": "address payable",
              "name": "owner",
              "type": "address"
            },
            {
              "internalType": "uint256",
              "name": "price",
              "type": "uint256"
            },
            {
              "internalType": "bool",
              "name": "sold",
              "type": "bool"
            }
          ],
          "internalType": "struct NFTMarketplace.MarketItem[]",
          "name": "",
          "type": "tuple[]"
        }
      ],
      "stateMutability": "view",
      "type": "function"
    },
    {
      "inputs": [
        {
          "internalType": "uint256",
          "name": "tokenId",
          "type": "uint256"
        }
      ],
      "name": "getApproved",
      "outputs": [
        {
          "internalType": "address",
          "name": "",
          "type": "address"
        }
      ],
      "stateMutability": "view",
      "type": "function"
    },
    {
      "inputs": [],
      "name": "getListingPrice",
      "outputs": [
        {
          "internalType": "uint256",
          "name": "",
          "type": "uint256"
        }
      ],
      "stateMutability": "view",
      "type": "function"
    },
    {
      "inputs": [
        {
          "internalType": "address",
          "name": "owner",
          "type": "address"
        },
        {
          "internalType": "address",
          "name": "operator",
          "type": "address"
        }
      ],
      "name": "isApprovedForAll",
      "outputs": [
        {
          "internalType": "bool",
          "name": "",
          "type": "bool"
        }
      ],
      "stateMutability": "view",
      "type": "function"
    },
    {
      "inputs": [],
      "name": "name",
      "outputs": [
        {
          "internalType": "string",
          "name": "",
          "type": "string"
        }
      ],
      "stateMutability": "view",
      "type": "function"
    },
    {
      "inputs": [
        {
          "internalType": "uint256",
          "name": "tokenId",
          "type": "uint256"
        }
      ],
      "name": "ownerOf",
      "outputs": [
        {
          "internalType": "address",
          "name": "",
          "type": "address"
        }
      ],
      "stateMutability": "view",
      "type": "function"
    },
    {
      "inputs": [
        {
          "internalType": "uint256",
          "name": "tokenId",
          "type": "uint256"
        },
        {
          "internalType": "uint256",
          "name": "price",
          "type": "uint256"
        }
      ],
      "name": "resellToken",
      "outputs": [],
      "stateMutability": "payable",
      "type": "function"
    },
    {
      "inputs": [
        {
          "internalType": "address",
          "name": "from",
          "type": "address"
        },
        {
          "internalType": "address",
          "name": "to",
          "type": "address"
        },
        {
          "internalType": "uint256",
          "name": "tokenId",
          "type": "uint256"
        }
      ],
      "name": "safeTransferFrom",
      "outputs": [],
      "stateMutability": "nonpayable",
      "type": "function"
    },
    {
      "inputs": [
        {
          "internalType": "address",
          "name": "from",
          "type": "address"
        },
        {
          "internalType": "address",
          "name": "to",
          "type": "address"
        },
        {
          "internalType": "uint256",
          "name": "tokenId",
          "type": "uint256"
        },
        {
          "internalType": "bytes",
          "name": "_data",
          "type": "bytes"
        }
      ],
      "name": "safeTransferFrom",
      "outputs": [],
      "stateMutability": "nonpayable",
      "type": "function"
    },
    {
      "inputs": [
        {
          "internalType": "address",
          "name": "operator",
          "type": "address"
        },
        {
          "internalType": "bool",
          "name": "approved",
          "type": "bool"
        }
      ],
      "name": "setApprovalForAll",
      "outputs": [],
      "stateMutability": "nonpayable",
      "type": "function"
    },
    {
      "inputs": [
        {
          "internalType": "bytes4",
          "name": "interfaceId",
          "type": "bytes4"
        }
      ],
      "name": "supportsInterface",
      "outputs": [
        {
          "internalType": "bool",
          "name": "",
          "type": "bool"
        }
      ],
      "stateMutability": "view",
      "type": "function"
    },
    {
      "inputs": [],
      "name": "symbol",
      "outputs": [
        {
          "internalType": "string",
          "name": "",
          "type": "string"
        }
      ],
      "stateMutability": "view",
      "type": "function"
    },
    {
      "inputs": [
        {
          "internalType": "uint256",
          "name": "tokenId",
          "type": "uint256"
        }
      ],
      "name": "tokenURI",
      "outputs": [
        {
          "internalType": "string",
          "name": "",
          "type": "string"
        }
      ],
      "stateMutability": "view",
      "type": "function"
    },
    {
      "inputs": [
        {
          "internalType": "address",
          "name": "from",
          "type": "address"
        },
        {
          "internalType": "address",
          "name": "to",
          "type": "address"
        },
        {
          "internalType": "uint256",
          "name": "tokenId",
          "type": "uint256"
        }
      ],
      "name": "transferFrom",
      "outputs": [],
      "stateMutability": "nonpayable",
      "type": "function"
    },
    {
      "inputs": [
        {
          "internalType": "uint256",
          "name": "_listingPrice",
          "type": "uint256"
        }
      ],
      "name": "updateListingPrice",
      "outputs": [],
      "stateMutability": "payable",
      "type": "function"
    }
  ],
  "bytecode": "0x60806040526658d15e176280006009553480156200001c57600080fd5b50604080518082018252600b81526a27b832b729bbb2b2b832b960a91b60208083019182528351808501909452600384526213d4d560ea1b9084015281519192916200006b916000916200009c565b508051620000819060019060208401906200009c565b5050600a80546001600160a01b03191633179055506200017f565b828054620000aa9062000142565b90600052602060002090601f016020900481019282620000ce576000855562000119565b82601f10620000e957805160ff191683800117855562000119565b8280016001018555821562000119579182015b8281111562000119578251825591602001919060010190620000fc565b50620001279291506200012b565b5090565b5b808211156200012757600081556001016200012c565b600181811c908216806200015757607f821691505b602082108114156200017957634e487b7160e01b600052602260045260246000fd5b50919050565b61236b806200018f6000396000f3fe60806040526004361061012a5760003560e01c80636352211e116100ab578063ae677aa31161006f578063ae677aa314610313578063b88d4fde14610326578063be9af53614610346578063c87b56dd14610359578063e219fc7514610379578063e985e9c51461038c57600080fd5b80636352211e1461028b57806370a08231146102ab57806372b3b620146102cb57806395d89b41146102de578063a22cb465146102f357600080fd5b8063128ae712116100f2578063128ae7121461020257806312e855851461021757806323b872dd1461023657806342842e0e1461025657806345f8fa801461027657600080fd5b806301ffc9a71461012f57806306fdde0314610164578063081812fc14610186578063095ea7b3146101be5780630f08efe0146101e0575b600080fd5b34801561013b57600080fd5b5061014f61014a366004611f2c565b6103d5565b60405190151581526020015b60405180910390f35b34801561017057600080fd5b50610179610427565b60405161015b9190612107565b34801561019257600080fd5b506101a66101a1366004611fba565b6104b9565b6040516001600160a01b03909116815260200161015b565b3480156101ca57600080fd5b506101de6101d9366004611f03565b610546565b005b3480156101ec57600080fd5b506101f561065c565b60405161015b919061208b565b34801561020e57600080fd5b506101f561080d565b34801561022357600080fd5b506009545b60405190815260200161015b565b34801561024257600080fd5b506101de610251366004611e15565b6109ff565b34801561026257600080fd5b506101de610271366004611e15565b610a30565b34801561028257600080fd5b506101f5610a4b565b34801561029757600080fd5b506101a66102a6366004611fba565b610c3d565b3480156102b757600080fd5b506102286102c6366004611dc9565b610cb4565b6102286102d9366004611f64565b610d3b565b3480156102ea57600080fd5b50610179610d7d565b3480156102ff57600080fd5b506101de61030e366004611ec9565b610d8c565b6101de610321366004611fba565b610d9b565b34801561033257600080fd5b506101de610341366004611e50565b610e17565b6101de610354366004611fba565b610e4f565b34801561036557600080fd5b50610179610374366004611fba565b610fb7565b6101de610387366004611fd2565b61112e565b34801561039857600080fd5b5061014f6103a7366004611de3565b6001600160a01b03918216600090815260056020908152604080832093909416825291909152205460ff1690565b60006001600160e01b031982166380ac58cd60e01b148061040657506001600160e01b03198216635b5e139f60e01b145b8061042157506301ffc9a760e01b6001600160e01b03198316145b92915050565b60606000805461043690612270565b80601f016020809104026020016040519081016040528092919081815260200182805461046290612270565b80156104af5780601f10610484576101008083540402835291602001916104af565b820191906000526020600020905b81548152906001019060200180831161049257829003601f168201915b5050505050905090565b60006104c482611226565b61052a5760405162461bcd60e51b815260206004820152602c60248201527f4552433732313a20617070726f76656420717565727920666f72206e6f6e657860448201526b34b9ba32b73a103a37b5b2b760a11b60648201526084015b60405180910390fd5b506000908152600460205260409020546001600160a01b031690565b600061055182610c3d565b9050806001600160a01b0316836001600160a01b031614156105bf5760405162461bcd60e51b815260206004820152602160248201527f4552433732313a20617070726f76616c20746f2063757272656e74206f776e656044820152603960f91b6064820152608401610521565b336001600160a01b03821614806105db57506105db81336103a7565b61064d5760405162461bcd60e51b815260206004820152603860248201527f4552433732313a20617070726f76652063616c6c6572206973206e6f74206f7760448201527f6e6572206e6f7220617070726f76656420666f7220616c6c00000000000000006064820152608401610521565b6106578383611243565b505050565b6060600061066960075490565b9050600061067660085490565b610680908361222d565b90506000808267ffffffffffffffff8111156106ac57634e487b7160e01b600052604160045260246000fd5b60405190808252806020026020018201604052801561070557816020015b6040805160a0810182526000808252602080830182905292820181905260608201819052608082015282526000199092019101816106ca5790505b50905060005b848110156108045730600b6000610723846001612201565b81526020810191909152604001600020600201546001600160a01b031614156107f2576000610753826001612201565b6000818152600b6020908152604091829020825160a0810184528154815260018201546001600160a01b039081169382019390935260028201549092169282019290925260038201546060820152600482015460ff1615156080820152855192935090918590879081106107d757634e487b7160e01b600052603260045260246000fd5b60209081029190910101526107ed600186612201565b945050505b806107fc816122ab565b91505061070b565b50949350505050565b6060600061081a60075490565b905060008060005b8381101561087d5733600b600061083a846001612201565b81526020810191909152604001600020600201546001600160a01b0316141561086b57610868600184612201565b92505b80610875816122ab565b915050610822565b5060008267ffffffffffffffff8111156108a757634e487b7160e01b600052604160045260246000fd5b60405190808252806020026020018201604052801561090057816020015b6040805160a0810182526000808252602080830182905292820181905260608201819052608082015282526000199092019101816108c55790505b50905060005b848110156108045733600b600061091e846001612201565b81526020810191909152604001600020600201546001600160a01b031614156109ed57600061094e826001612201565b6000818152600b6020908152604091829020825160a0810184528154815260018201546001600160a01b039081169382019390935260028201549092169282019290925260038201546060820152600482015460ff1615156080820152855192935090918590879081106109d257634e487b7160e01b600052603260045260246000fd5b60209081029190910101526109e8600186612201565b945050505b806109f7816122ab565b915050610906565b610a0933826112b1565b610a255760405162461bcd60e51b8152600401610521906121b0565b610657838383611397565b61065783838360405180602001604052806000815250610e17565b60606000610a5860075490565b905060008060005b83811015610abb5733600b6000610a78846001612201565b81526020810191909152604001600020600101546001600160a01b03161415610aa957610aa6600184612201565b92505b80610ab3816122ab565b915050610a60565b5060008267ffffffffffffffff811115610ae557634e487b7160e01b600052604160045260246000fd5b604051908082528060200260200182016040528015610b3e57816020015b6040805160a081018252600080825260208083018290529282018190526060820181905260808201528252600019909201910181610b035790505b50905060005b848110156108045733600b6000610b5c846001612201565b81526020810191909152604001600020600101546001600160a01b03161415610c2b576000610b8c826001612201565b6000818152600b6020908152604091829020825160a0810184528154815260018201546001600160a01b039081169382019390935260028201549092169282019290925260038201546060820152600482015460ff161515608082015285519293509091859087908110610c1057634e487b7160e01b600052603260045260246000fd5b6020908102919091010152610c26600186612201565b945050505b80610c35816122ab565b915050610b44565b6000818152600260205260408120546001600160a01b0316806104215760405162461bcd60e51b815260206004820152602960248201527f4552433732313a206f776e657220717565727920666f72206e6f6e657869737460448201526832b73a103a37b5b2b760b91b6064820152608401610521565b60006001600160a01b038216610d1f5760405162461bcd60e51b815260206004820152602a60248201527f4552433732313a2062616c616e636520717565727920666f7220746865207a65604482015269726f206164647265737360b01b6064820152608401610521565b506001600160a01b031660009081526003602052604090205490565b6000610d4b600780546001019055565b6000610d5660075490565b9050610d623382611533565b610d6c8185611666565b610d7681846116f1565b9392505050565b60606001805461043690612270565b610d97338383611847565b5050565b600a546001600160a01b03163314610e125760405162461bcd60e51b815260206004820152603460248201527f4f6e6c79206d61726b6574706c616365206f776e65722063616e2075706461746044820152736520746865206c697374696e672070726963652160601b6064820152608401610521565b600955565b610e2133836112b1565b610e3d5760405162461bcd60e51b8152600401610521906121b0565b610e4984848484611916565b50505050565b6000818152600b6020526040902060030154348114610ed8576040805162461bcd60e51b81526020600482015260248101919091527f506c65617365207375626d6974207468652061736b696e67207072696365206960448201527f6e206f7264657220746f20636f6d706c657465207468652070757263686173656064820152608401610521565b6000828152600b602052604090206002810180546001600160a01b0319908116331790915560048201805460ff1916600190811790915590910180549091169055610f27600880546001019055565b610f32303384611397565b600a546009546040516001600160a01b039092169181156108fc0291906000818181858888f19350505050158015610f6e573d6000803e3d6000fd5b506000828152600b60205260408082206001015490516001600160a01b03909116913480156108fc02929091818181858888f19350505050158015610657573d6000803e3d6000fd5b6060610fc282611226565b6110285760405162461bcd60e51b815260206004820152603160248201527f45524337323155524953746f726167653a2055524920717565727920666f72206044820152703737b732bc34b9ba32b73a103a37b5b2b760791b6064820152608401610521565b6000828152600660205260408120805461104190612270565b80601f016020809104026020016040519081016040528092919081815260200182805461106d90612270565b80156110ba5780601f1061108f576101008083540402835291602001916110ba565b820191906000526020600020905b81548152906001019060200180831161109d57829003601f168201915b5050505050905060006110d860408051602081019091526000815290565b90508051600014156110eb575092915050565b81511561111d57808260405160200161110592919061201f565b60405160208183030381529060405292505050919050565b61112684611949565b949350505050565b6000828152600b60205260409020600201546001600160a01b031633146111aa5760405162461bcd60e51b815260206004820152602a60248201527f4f6e6c79206974656d206f776e65722063616e20706572666f726d20746869736044820152691037b832b930ba34b7b760b11b6064820152608401610521565b60095434146111cb5760405162461bcd60e51b81526004016105219061216c565b6000828152600b6020526040902060048101805460ff19169055600381018290556001810180546001600160a01b03199081163317909155600290910180549091163017905561121b6008611a20565b610d97333084611397565b6000908152600260205260409020546001600160a01b0316151590565b600081815260046020526040902080546001600160a01b0319166001600160a01b038416908117909155819061127882610c3d565b6001600160a01b03167f8c5be1e5ebec7d5bd14f71427d1e84f3dd0314c0f7b2291e5b200ac8c7c3b92560405160405180910390a45050565b60006112bc82611226565b61131d5760405162461bcd60e51b815260206004820152602c60248201527f4552433732313a206f70657261746f7220717565727920666f72206e6f6e657860448201526b34b9ba32b73a103a37b5b2b760a11b6064820152608401610521565b600061132883610c3d565b9050806001600160a01b0316846001600160a01b031614806113635750836001600160a01b0316611358846104b9565b6001600160a01b0316145b8061112657506001600160a01b0380821660009081526005602090815260408083209388168352929052205460ff16611126565b826001600160a01b03166113aa82610c3d565b6001600160a01b03161461140e5760405162461bcd60e51b815260206004820152602560248201527f4552433732313a207472616e736665722066726f6d20696e636f72726563742060448201526437bbb732b960d91b6064820152608401610521565b6001600160a01b0382166114705760405162461bcd60e51b8152602060048201526024808201527f4552433732313a207472616e7366657220746f20746865207a65726f206164646044820152637265737360e01b6064820152608401610521565b61147b600082611243565b6001600160a01b03831660009081526003602052604081208054600192906114a490849061222d565b90915550506001600160a01b03821660009081526003602052604081208054600192906114d2908490612201565b909155505060008181526002602052604080822080546001600160a01b0319166001600160a01b0386811691821790925591518493918716917fddf252ad1be2c89b69c2b068fc378daa952ba7f163c4a11628f55a4df523b3ef91a4505050565b6001600160a01b0382166115895760405162461bcd60e51b815260206004820181905260248201527f4552433732313a206d696e7420746f20746865207a65726f20616464726573736044820152606401610521565b61159281611226565b156115df5760405162461bcd60e51b815260206004820152601c60248201527f4552433732313a20746f6b656e20616c7265616479206d696e746564000000006044820152606401610521565b6001600160a01b0382166000908152600360205260408120805460019290611608908490612201565b909155505060008181526002602052604080822080546001600160a01b0319166001600160a01b03861690811790915590518392907fddf252ad1be2c89b69c2b068fc378daa952ba7f163c4a11628f55a4df523b3ef908290a45050565b61166f82611226565b6116d25760405162461bcd60e51b815260206004820152602e60248201527f45524337323155524953746f726167653a2055524920736574206f66206e6f6e60448201526d32bc34b9ba32b73a103a37b5b2b760911b6064820152608401610521565b6000828152600660209081526040909120825161065792840190611c9e565b600081116117415760405162461bcd60e51b815260206004820152601c60248201527f5072696365206d7573742062652067726561746572207468616e2030000000006044820152606401610521565b60095434146117625760405162461bcd60e51b81526004016105219061216c565b6040805160a08101825283815233602080830182815230848601818152606086018881526000608088018181528b8252600b909652979097209551865591516001860180546001600160a01b03199081166001600160a01b0393841617909155925160028701805490941691161790915593516003840155516004909201805460ff1916921515929092179091556117fa9184611397565b604080513381523060208201529081018290526000606082015282907fb640004f1d14576d0c209e240cad0410e0d8c0c33a09375861fbadae2588a98d9060800160405180910390a25050565b816001600160a01b0316836001600160a01b031614156118a95760405162461bcd60e51b815260206004820152601960248201527f4552433732313a20617070726f766520746f2063616c6c6572000000000000006044820152606401610521565b6001600160a01b03838116600081815260056020908152604080832094871680845294825291829020805460ff191686151590811790915591519182527f17307eab39ab6107e8899845ad3d59bd9653f200f220920489ca2b5937696c31910160405180910390a3505050565b611921848484611397565b61192d84848484611a77565b610e495760405162461bcd60e51b81526004016105219061211a565b606061195482611226565b6119b85760405162461bcd60e51b815260206004820152602f60248201527f4552433732314d657461646174613a2055524920717565727920666f72206e6f60448201526e3732bc34b9ba32b73a103a37b5b2b760891b6064820152608401610521565b60006119cf60408051602081019091526000815290565b905060008151116119ef5760405180602001604052806000815250610d76565b806119f984611b84565b604051602001611a0a92919061201f565b6040516020818303038152906040529392505050565b805480611a6f5760405162461bcd60e51b815260206004820152601b60248201527f436f756e7465723a2064656372656d656e74206f766572666c6f7700000000006044820152606401610521565b600019019055565b60006001600160a01b0384163b15611b7957604051630a85bd0160e11b81526001600160a01b0385169063150b7a0290611abb90339089908890889060040161204e565b602060405180830381600087803b158015611ad557600080fd5b505af1925050508015611b05575060408051601f3d908101601f19168201909252611b0291810190611f48565b60015b611b5f573d808015611b33576040519150601f19603f3d011682016040523d82523d6000602084013e611b38565b606091505b508051611b575760405162461bcd60e51b81526004016105219061211a565b805181602001fd5b6001600160e01b031916630a85bd0160e11b149050611126565b506001949350505050565b606081611ba85750506040805180820190915260018152600360fc1b602082015290565b8160005b8115611bd25780611bbc816122ab565b9150611bcb9050600a83612219565b9150611bac565b60008167ffffffffffffffff811115611bfb57634e487b7160e01b600052604160045260246000fd5b6040519080825280601f01601f191660200182016040528015611c25576020820181803683370190505b5090505b841561112657611c3a60018361222d565b9150611c47600a866122c6565b611c52906030612201565b60f81b818381518110611c7557634e487b7160e01b600052603260045260246000fd5b60200101906001600160f81b031916908160001a905350611c97600a86612219565b9450611c29565b828054611caa90612270565b90600052602060002090601f016020900481019282611ccc5760008555611d12565b82601f10611ce557805160ff1916838001178555611d12565b82800160010185558215611d12579182015b82811115611d12578251825591602001919060010190611cf7565b50611d1e929150611d22565b5090565b5b80821115611d1e5760008155600101611d23565b600067ffffffffffffffff80841115611d5257611d52612306565b604051601f8501601f19908116603f01168101908282118183101715611d7a57611d7a612306565b81604052809350858152868686011115611d9357600080fd5b858560208301376000602087830101525050509392505050565b80356001600160a01b0381168114611dc457600080fd5b919050565b600060208284031215611dda578081fd5b610d7682611dad565b60008060408385031215611df5578081fd5b611dfe83611dad565b9150611e0c60208401611dad565b90509250929050565b600080600060608486031215611e29578081fd5b611e3284611dad565b9250611e4060208501611dad565b9150604084013590509250925092565b60008060008060808587031215611e65578081fd5b611e6e85611dad565b9350611e7c60208601611dad565b925060408501359150606085013567ffffffffffffffff811115611e9e578182fd5b8501601f81018713611eae578182fd5b611ebd87823560208401611d37565b91505092959194509250565b60008060408385031215611edb578182fd5b611ee483611dad565b915060208301358015158114611ef8578182fd5b809150509250929050565b60008060408385031215611f15578182fd5b611f1e83611dad565b946020939093013593505050565b600060208284031215611f3d578081fd5b8135610d768161231c565b600060208284031215611f59578081fd5b8151610d768161231c565b60008060408385031215611f76578182fd5b823567ffffffffffffffff811115611f8c578283fd5b8301601f81018513611f9c578283fd5b611fab85823560208401611d37565b95602094909401359450505050565b600060208284031215611fcb578081fd5b5035919050565b60008060408385031215611fe4578182fd5b50508035926020909101359150565b6000815180845261200b816020860160208601612244565b601f01601f19169290920160200192915050565b60008351612031818460208801612244565b835190830190612045818360208801612244565b01949350505050565b6001600160a01b038581168252841660208201526040810183905260806060820181905260009061208190830184611ff3565b9695505050505050565b602080825282518282018190526000919060409081850190868401855b828110156120fa57815180518552868101516001600160a01b03908116888701528682015116868601526060808201519086015260809081015115159085015260a090930192908501906001016120a8565b5091979650505050505050565b602081526000610d766020830184611ff3565b60208082526032908201527f4552433732313a207472616e7366657220746f206e6f6e20455243373231526560408201527131b2b4bb32b91034b6b83632b6b2b73a32b960711b606082015260800190565b60208082526024908201527f5072696365206d75737420626520657175616c20746f206c697374696e6720706040820152637269636560e01b606082015260800190565b60208082526031908201527f4552433732313a207472616e736665722063616c6c6572206973206e6f74206f6040820152701ddb995c881b9bdc88185c1c1c9bdd9959607a1b606082015260800190565b60008219821115612214576122146122da565b500190565b600082612228576122286122f0565b500490565b60008282101561223f5761223f6122da565b500390565b60005b8381101561225f578181015183820152602001612247565b83811115610e495750506000910152565b600181811c9082168061228457607f821691505b602082108114156122a557634e487b7160e01b600052602260045260246000fd5b50919050565b60006000198214156122bf576122bf6122da565b5060010190565b6000826122d5576122d56122f0565b500690565b634e487b7160e01b600052601160045260246000fd5b634e487b7160e01b600052601260045260246000fd5b634e487b7160e01b600052604160045260246000fd5b6001600160e01b03198116811461233257600080fd5b5056fea2646970667358221220c8a5b77fd03a5cfaa653bf3e8ece4d714bc4a4535b0cb8746e15a53c3a178f0864736f6c63430008040033",
  "linkReferences": {},
  "deployedLinkReferences": {}
}